:020000040000fa
:080000000002040000000000f2
:020000040000fa
:04000800e408000008
:020000040000fa
:04000c00c802000026
:020000040000fa
:04001000ce0200001c
:020000040000fa
:04001400d402000012
:020000040000fa
:04001800da02000008
:020000040000fa
:04001c00e4080000f4
:020000040000fa
:04002000e4080000f0
:020000040000fa
:04002400e4080000ec
:020000040000fa
:04002800e4080000e8
:020000040000fa
:04002c00e4080000e4
:020000040000fa
:04003000e4080000e0
:020000040000fa
:04003400e4080000dc
:020000040000fa
:04003800e4080000d8
:020000040000fa
:04003c00e4080000d4
:020000040000fa
:04004000e4080000d0
:020000040000fa
:04004400e4080000cc
:020000040000fa
:04004800e4080000c8
:020000040000fa
:04004c00e4080000c4
:020000040000fa
:04005000e4080000c0
:020000040000fa
:04005400a6070000fb
:020000040000fa
:04005800e4080000b8
:020000040000fa
:04005c00e4080000b4
:020000040000fa
:04006000e4080000b0
:020000040000fa
:04006400e4080000ac
:020000040000fa
:04006800e4080000a8
:020000040000fa
:04006c00e4080000a4
:020000040000fa
:04007000e4080000a0
:020000040000fa
:04007400e40800009c
:020000040000fa
:04007800e408000098
:020000040000fa
:04007c00e408000094
:020000040000fa
:04008000e408000090
:020000040000fa
:04008400e40800008c
:020000040000fa
:04008800e408000088
:020000040000fa
:04008c00e408000084
:020000040000fa
:04009000e408000080
:020000040000fa
:04009400e40800007c
:020000040000fa
:04009800e408000078
:020000040000fa
:04009c00e408000074
:020000040000fa
:0400a000e408000070
:020000040000fa
:0400a400e40800006c
:020000040000fa
:0400a800e408000068
:020000040000fa
:0400ac00e408000064
:020000040000fa
:0400b000e408000060
:020000040000fa
:0400b400e40800005c
:020000040000fa
:0400b800e408000058
:020000040000fa
:0400bc00e408000054
:020000040000fa
:0400c000e408000050
:020000040000fa
:0400c400e40800004c
:020000040000fa
:0400c800e408000048
:020000040000fa
:0400cc00e408000044
:020000040000fa
:0400d000e408000040
:020000040000fa
:0400d400e40800003c
:020000040000fa
:0400d800e408000038
:020000040000fa
:0400dc00e408000034
:020000040000fa
:0400e000e408000030
:020000040000fa
:0400e400e40800002c
:020000040000fa
:0400e800e408000028
:020000040000fa
:0400ec00e408000024
:020000040000fa
:0400f000e408000020
:020000040000fa
:0400f400e40800001c
:020000040000fa
:0400f800e408000018
:020000040000fa
:0400fc00e408000014
:020000040000fa
:04010000e40800000f
:020000040000fa
:04010400e40800000b
:020000040000fa
:04010800e408000007
:020000040000fa
:04010c00e408000003
:020000040000fa
:04011000e4080000ff
:020000040000fa
:04011400e4080000fb
:020000040000fa
:04011800e4080000f7
:020000040000fa
:04011c00e4080000f3
:020000040000fa
:04012000e4080000ef
:020000040000fa
:04012400e4080000eb
:020000040000fa
:04012800e4080000e7
:020000040000fa
:04012c00e4080000e3
:020000040000fa
:04013000e4080000df
:020000040000fa
:04013400e4080000db
:020000040000fa
:04013800e4080000d7
:020000040000fa
:04013c00e4080000d3
:020000040000fa
:04014000e4080000cf
:020000040000fa
:04014400e4080000cb
:020000040000fa
:04014800e4080000c7
:020000040000fa
:04014c00e4080000c3
:020000040000fa
:04015000e4080000bf
:020000040000fa
:04015400e4080000bb
:020000040000fa
:04015800e4080000b7
:020000040000fa
:04015c00e4080000b3
:020000040000fa
:04016000e4080000af
:020000040000fa
:04016400e4080000ab
:020000040000fa
:04016800e4080000a7
:020000040000fa
:04016c00e4080000a3
:020000040000fa
:04017000e40800009f
:020000040000fa
:04017400e40800009b
:020000040000fa
:04017800e408000097
:020000040000fa
:04017c00e408000093
:020000040000fa
:04018000e40800008f
:020000040000fa
:04018400e40800008b
:020000040000fa
:04018800e408000087
:020000040000fa
:04018c00e408000083
:020000040000fa
:04019000e40800007f
:020000040000fa
:04019400e40800007b
:020000040000fa
:04019800e408000077
:020000040000fa
:04019c00e408000073
:020000040000fa
:0401a000e40800006f
:020000040000fa
:0401a400e40800006b
:020000040000fa
:0401a800e408000067
:020000040000fa
:0401ac00e408000063
:020000040000fa
:0401b000e40800005f
:020000040000fa
:0401b400e40800005b
:020000040000fa
:0401b800e408000057
:020000040000fa
:0401bc00e408000053
:020000040000fa
:0401c000e40800004f
:020000040000fa
:0401c400e40800004b
:020000040000fa
:0401c800e408000047
:020000040000fa
:0401cc00e408000043
:020000040000fa
:0401d000e40800003f
:020000040000fa
:0401d400e40800003b
:020000040000fa
:0401d800e408000037
:020000040000fa
:0401dc00e408000033
:020000040000fa
:0401e000f40800001f
:020000040000fa
:0401e400e40800002b
:020000040000fa
:0401e800e408000027
:020000040000fa
:0401ec00e408000023
:020000040000fa
:0401f000e40800001f
:020000040000fa
:0401f400e40800001b
:020000040000fa
:0401f800e408000017
:020000040000fa
:04020800e408000006
:020000040000fa
:04020c00e00200000c
:020000040000fa
:04021000e602000002
:020000040000fa
:04021400ec020000f8
:020000040000fa
:04021800f2020000ee
:020000040000fa
:04021c00e4080000f2
:020000040000fa
:04022000e4080000ee
:020000040000fa
:04022400e4080000ea
:020000040000fa
:04022800e4080000e6
:020000040000fa
:04022c00e4080000e2
:020000040000fa
:04023000e4080000de
:020000040000fa
:04023400e4080000da
:020000040000fa
:04023800e4080000d6
:020000040000fa
:04023c00e4080000d2
:020000040000fa
:04024000e4080000ce
:020000040000fa
:04024400e4080000ca
:020000040000fa
:04024800e4080000c6
:020000040000fa
:04024c00e4080000c2
:020000040000fa
:04025000e4080000be
:020000040000fa
:04025400e4080000ba
:020000040000fa
:04025800e4080000b6
:020000040000fa
:04025c00e4080000b2
:020000040000fa
:04026000e4080000ae
:020000040000fa
:04026400e4080000aa
:020000040000fa
:04026800e4080000a6
:020000040000fa
:04026c00e4080000a2
:020000040000fa
:04027000e40800009e
:020000040000fa
:04027400e40800009a
:020000040000fa
:04027800e408000096
:020000040000fa
:04027c00e408000092
:020000040000fa
:04028000e40800008e
:020000040000fa
:04028400e40800008a
:020000040000fa
:04028800e408000086
:020000040000fa
:04028c00e408000082
:020000040000fa
:04029000e40800007e
:020000040000fa
:04029400e40800007a
:020000040000fa
:04029800e408000076
:020000040000fa
:04029c00e408000072
:020000040000fa
:0402a000e40800006e
:020000040000fa
:0402a400e40800006a
:020000040000fa
:0402a800e408000066
:020000040000fa
:0402ac00e408000062
:020000040000fa
:0402b000e40800005e
:020000040000fa
:0402b400e40800005a
:020000040000fa
:0402b800e408000056
:020000040000fa
:0402bc00e408000052
:020000040000fa
:0402c000e40800004e
:020000040000fa
:0402c400e40800004a
:020000040000fa
:0402c800e408000046
:020000040000fa
:0402cc00e408000042
:020000040000fa
:0402d000e40800003e
:020000040000fa
:0402d400e40800003a
:020000040000fa
:0402d800e408000036
:020000040000fa
:0402dc00e408000032
:020000040000fa
:0402e000e40800002e
:020000040000fa
:0402e400e40800002a
:020000040000fa
:0402e800e408000026
:020000040000fa
:0402ec00e408000022
:020000040000fa
:0402f000e40800001e
:020000040000fa
:0402f400e40800001a
:020000040000fa
:0402f800e408000016
:020000040000fa
:0402fc00e408000012
:020000040000fa
:04030000e40800000d
:020000040000fa
:04030400e408000009
:020000040000fa
:04030800e408000005
:020000040000fa
:04030c00e408000001
:020000040000fa
:04031000e4080000fd
:020000040000fa
:04031400e4080000f9
:020000040000fa
:04031800e4080000f5
:020000040000fa
:04031c00e4080000f1
:020000040000fa
:04032000e4080000ed
:020000040000fa
:04032400e4080000e9
:020000040000fa
:04032800e4080000e5
:020000040000fa
:04032c00e4080000e1
:020000040000fa
:04033000e4080000dd
:020000040000fa
:04033400e4080000d9
:020000040000fa
:04033800e4080000d5
:020000040000fa
:04033c00e4080000d1
:020000040000fa
:04034000e4080000cd
:020000040000fa
:04034400e4080000c9
:020000040000fa
:04034800e4080000c5
:020000040000fa
:04034c00e4080000c1
:020000040000fa
:04035000e4080000bd
:020000040000fa
:04035400e4080000b9
:020000040000fa
:04035800e4080000b5
:020000040000fa
:04035c00e4080000b1
:020000040000fa
:04036000e4080000ad
:020000040000fa
:04036400e4080000a9
:020000040000fa
:04036800e4080000a5
:020000040000fa
:04036c00e4080000a1
:020000040000fa
:04037000e40800009d
:020000040000fa
:04037400e408000099
:020000040000fa
:04037800e408000095
:020000040000fa
:04037c00e408000091
:020000040000fa
:04038000e40800008d
:020000040000fa
:04038400e408000089
:020000040000fa
:04038800e408000085
:020000040000fa
:04038c00e408000081
:020000040000fa
:04039000e40800007d
:020000040000fa
:04039400e408000079
:020000040000fa
:04039800e408000075
:020000040000fa
:04039c00e408000071
:020000040000fa
:0403a000e40800006d
:020000040000fa
:0403a400e408000069
:020000040000fa
:0403a800e408000065
:020000040000fa
:0403ac00e408000061
:020000040000fa
:0403b000e40800005d
:020000040000fa
:0403b400e408000059
:020000040000fa
:0403b800e408000055
:020000040000fa
:0403bc00e408000051
:020000040000fa
:0403c000e40800004d
:020000040000fa
:0403c400e408000049
:020000040000fa
:0403c800e408000045
:020000040000fa
:0403cc00e408000041
:020000040000fa
:0403d000e40800003d
:020000040000fa
:0403d400e408000039
:020000040000fa
:0403d800e408000035
:020000040000fa
:0403dc00e408000031
:020000040000fa
:0403e000e40800002d
:020000040000fa
:0403e400e408000029
:020000040000fa
:0403e800e408000025
:020000040000fa
:0403ec00e408000021
:020000040000fa
:0403f000e40800001d
:020000040000fa
:0403f400e408000019
:020000040000fa
:0403f800e408000015
:020000040000fa
:100400006fe820000eff20000e01880000000000b1
:10041000000020000000e000020032000001200087
:100420002002880014000700710007000000e000af
:1004300003003a00209f2000010020000200370046
:100440000000200001002000810f70000100320038
:1004500014000700000020000000e000020032004d
:1004600000000200000000008808020000000000f8
:100470000040da000000fe004440a9000000200017
:100480000000e0000300320000002000a00188000e
:100490004440a800000006008a1f78008b1f7800e7
:1004a0000000060091018800800478000000eb0045
:1004b0001a003700e284440032a0b4009905ba0063
:1004c000e284440032a0b4009906ba00e2844400f9
:1004d00032a0b4000006eb00476fde00fd07b2005b
:1004e000636ce10003003a00ebff07000000eb0043
:1004f0000a003700606ce10004003a00005deb0088
:100500008b05e900fdff3e00040037006168e10053
:10051000010032000086eb000b00070019c7ba008b
:100520001905ba000e04e00003003a000a00e000da
:10053000e0ff3a0000000600fe07b2009e018800be
:100540008a047800f5ff3700395dba008b05e900b1
:100550000c003200295dba008b05e900080032006a
:100560000c00e00003003a00e284440032a0b40032
:10057000f5ff370019ddba008b05e900faff3a00f4
:100580008904e800e184440032a0b40000000600c1
:100590000000fa008020a900ffff37000000fa00e9
:1005a0008060a900ffff37000000fa008040a9002a
:1005b000ffff37000000fa008080a900ffff37002e
:1005c0000000fa008020a900ffff37000000fa00b9
:1005d0008060a900ffff37000000fa008040a900fa
:1005e000ffff37000000fa008080a900ffff3700fe
:1005f000000005000001be001b0007000470a700fa
:1006000003f0a10003f8a30013003a006509b1004c
:1006100010003200090035006928e10002003500b1
:100620000100280000000500000040008180480013
:100630008502e900fcff3a0000000600f88f420046
:10064000050035008100d1000080d3008502e8005c
:10065000fcff3a00000006008000eb0000000500ef
:100660006011b80049003700c70ade00f107b20088
:10067000f50fb20008003200e1cf42000200320064
:100680000170a00024000500810f700001003200fd
:100690000408050044000500810f700002003a00c4
:1006a000140005008502e9000000400081c04800f8
:1006b000fcff3b000170a00024000500889fbe00e5
:1006c0008a9fbe008c1f7800850007008c003300d5
:1006d00003866c006450e100240032006420e100d5
:1006e000270032006150e100220032006120e10069
:1006f000210032008b854200eb07b1000134b800c5
:10070000003ab8000804420089844a00013ab8005f
:100710000030b8008880400009014a00040033001e
:100720000000400081804800020149008b05e9007b
:10073000c909dd00830170000100320013002000b0
:10074000c814de004814dd004709de001200b200c4
:10075000c808de00088470003b00070001f0a1001b
:100760000cf0a70001f0a0006e0037006120e1004e
:10077000700032000801be000200be00f7ff370023
:100780006150e100fcff3a006a003700889fbe001c
:100790008a9fbe0000827000040271000482710012
:1007a000260032000004be000200be006011b80046
:1007b0006b092000950220000182cf000a00390059
:1007c0000541b1000082cf00070039000541b100aa
:1007d0000982cf00040039000541b1000882cf0032
:1007e000010039000541b1000542520012003200fb
:1007f0000a003b0082817100610164008100d10028
:100800000080d3008984d3000884d3008b05e800de
:100810000442e800f7ff3a000700370008044400ec
:1008200089844c0000004800818048008b05e90065
:100830000442e900f9ff3a00030007004f05be003b
:100840004f04be00000006008100200061805500ba
:100850000b003d000b00200061fe2f000100e100b5
:100860001d00340082817100610164008904d1009f
:100870000884d3000000e800faff3a00710020006d
:100880006100640003007000020060000900320093
:1008900061044400e0844c000988a5000500320092
:1008a0008b05e8006808e10002003a008904d100e5
:1008b0000884d300f20f20000258e10005003d003b
:1008c000c75ddd00f907b200898075000800780077
:1008d000000006000bf827008b00780000000500e0
:1008e0000004be0060ff07000003be000405be0058
:1008f0000200be005cff0700844f75000000060088
:100900000200be006450e100050036006420e100f2
:10091000020036000968a30001003a000800be008a
:100920000160a0004f0678004f05be004f04be00d6
:1009300000000600f0ff2f00f1ff2700f9ff37004d
:020000040000fa
:100940000000fa0090022000303a8800213a80002e
:10095000f0f32f0000806000203a8800213a8000e8
:1009600000fe2f0000806000203a88001200200066
:1009700080072000a10920003374200080497800fe
:10098000814978008249780012002000600420002c
:100990007105200023742000804978008149780087
:1009a0008249780000000000113a80000000270012
:1009b0008080600000002100808f5000faff3a0024
:1009c00000000000113a800000022000008060005a
:1009d0000000e000fbff320050c7a80051a7a800ac
:1009e000813a80000070200001007000803a880089
:1009f00051e7a80000000000813a800000002400b8
:100a0000008060000000e000fbff320044e0a8002e
:100a100044c0a8004400a80044a0a80040a7a90022
:100a200081e0a8000080fa00000006000000fa0043
:100a3000c862a800c882a800d042a900d0e2a900dc
:100a4000c962a900c982a900c9a2a900c9c2a90096
:100a5000c082a900c062a900d082a900d0a2a800cb
:100a6000c002a800c022a800c042a800c802a80076
:100a7000c922a800c942a8000080eb001018880015
:100a80000203a9000223a9000243a9000263a900ee
:100a90000283a90002a3a900103a80000001780097
:100aa0000260a10060042000710520002374200072
:100ab0008049780081497800824978002137800098
:100ac00000fc2f00008060003000b3002037880059
:100ad0002135800000fc2f00008060005001b30031
:100ae00020358800103a8000000178000260a000e4
:100af00060042000710520002374200080497800e4
:100b000081497800824978000080fa0000000600e0
:100b10000000fa00c03a2000202088002020800039
:100b20008000eb00cefe07000200200003f023004f
:100b3000e2fe0700affe07000000780050208800aa
:100b400023e4a90023c4a90011218000f03f2f0055
:100b500000806000102188002324a8002304a8003e
:100b600011218000f0f32f00008060001021880028
:100b70002144a9002104a8002a24ef002c24ef001e
:100b80002824ef0001e4a8000080fa00000006001d
:100b90000000fa000103a90000e3a90000c3a900b6
:100ba00000a3a9000083a8000183a8000118800009
:100bb00080ff2f00008060005000b3000018880004
:100bc0000603a9000ae3a8005118800000fe2f00c8
:100bd000008060003000b3005018880090012000b1
:100be0003020880001e3a8000080fa000000060021
:100bf0000000fa000021ef000080eb0010088800e0
:100c000021088000000320000100700020088800f7
:100c10000080fa00000006000000fa0001118000c8
:100c2000f0cf2f0000806000001188002062a80033
:100c3000a00a20004011880021e2a8002342a80059
:100c40000080fa00000006000000fa009106800013
:100c5000f08f2f000080600000a0a00090068800a8
:100c60008fc0a9009fc0a900d1068000f08f2f007f
:100c70000080600000a0a000d006880091c0a900fc
:100c8000a1c0a900d1068000f0ff2800808060008c
:100c90000000230001007000d006880091e0a90048
:100ca000a1e0a900e106800080ff2f000080600025
:100cb0003000b300e00688009200a900a200a9005d
:100cc000e1068000f0f82f00808060000003200023
:100cd00001007000e00688009220a900a220a9006f
:100ce0005105800080ff2f00008060000010a000f0
:100cf0005005880041058000f0ff280080806000da
:100d00000000230001007000400588008580a900d4
:100d10009580a9008560a9009560a9000080fa006f
:100d2000000006000000fa008fc0a9009fc0a900c3
:100d300091c0a900a1c0a80091e0a900a1e0a9006c
:100d40009200a900a200a9009220a900a220a90057
:100d50008580a9009580a9008560a9009560a800fc
:100d60000080fa00000006000000fa008fc0a90011
:100d70009fc0a90091c0a900a1c0a90091e0a9004d
:100d8000a1e0a9009200a900a200a9009220a90058
:100d9000a220a9008580a9009580a9008560a900ee
:100da0009560a9000080fa00000006000000fa002b
:100db0000148a9004e6eef00502eef00846eef0048
:100dc0000080fa00000006000000fa0001408000e8
:100dd00000402000008060000000e00009003a00b0
:100de0000140800000202000008060000000e00042
:100df00004003200502eef0000cab3004eeeb700e0
:100e00000148a800014080000040200000806000f0
:100e10000000e0004b0032001111800000102000a3
:100e2000008060000000e000460032008072800018
:100e3000e30f500018003e0080728000e10f500068
:100e40000a003200e10f500005003900e20f5000a7
:100e500009003200e30f50000b003200360037006b
:100e6000300720002011880033003700e006200002
:100e70002011880030003700000720002011880072
:100e8000000000002c0037004ecebf000080fb00a9
:100e900020118800280037004ecebf008080fb0064
:100ea000000a2000808f500023003a0081728000e9
:100eb00030642000808f500008003e008072800067
:100ec000e4005000a0802000008040001040780026
:100ed0000080fb002011880017003700807280001e
:100ee00051642000810f500009003200616420002d
:100ef000810f50000900320041642000810f500032
:100f00000c003a005006200020118800080037002d
:100f1000e006200020118800050037004006200070
:100f2000201188000148a9000128a9000000000044
:100f30000100370000000000807280000000e8001f
:100f4000807288000080fa0000000600809fbe00ca
:100f5000829fbe000000fa008560a9002222a9003d
:100f600084cebf008081fb003111800001417800f8
:100f700021e5200081804100824878000040e8009f
:100f800084eeb70084cebf00e24f50005c00360014
:100f900084cebf000080fb00e300500020e520006d
:100fa000008040009040780050c6b30080cf5000d1
:100fb00053003a0084cebf000080fb008080e9002f
:100fc00020e520000080400090407800e0c6b3009b
:100fd00080cf50004a003a0084cebf000080fb0062
:100fe0008000e90020e5200000804000904078006b
:100ff00040c6b30080cf500041003a0084cebf000d
:101000000080fb00e400500020e52000008040004c
:10101000104078000080fb002040880084cebf0094
:101020000080fb00e500500020e52000008040002b
:10103000104078000080fb001040880010408000c5
:10104000c13a20000008dd001040880084cebf00b7
:101050000080fb00e600500020e5200000804000fa
:10106000104078000080fb004200dd003040880026
:1010700084cebf000080fb00e700500020e5200088
:10108000008040009040780000c3b30080cf500043
:1010900002003a0000a8a9000100370000a8a8003b
:1010a000846eef000140800000102000008060008e
:1010b0000000e00006003a0001408000002020000f
:1010c000008060000000e00001003a0000e8a80095
:1010d000a01680004700de00614060000004a2000e
:1010e000614060000080fb00610060004700dd009f
:1010f000a11680000170a10001007000a0168800f8
:101100000080fa004f01be004f00be000040060004
:101110000000fa000afe070044fe07007cfe0700fc
:101120009bfe0700b2fe0700bbfe0700860007001b
:101130001eff0700c4fe07004a2eef00a08020001b
:101140006072880000408000674060000080fb0003
:10115000e20f500010003200e20f500005003c008a
:101160000000e00008003200e10f500008003200eb
:101170000f003700e30f500009003200e40f500069
:10118000090032000a003700470007000d00370051
:101190004b0007000b003700500007000900370024
:1011a00057000700070037005c0007000500370004
:1011b0000088a8000008a8000028a8000048a9008e
:1011c00000000000dfff37003400f800881f7800bf
:1011d00008002000a80188004f0478000000fa00f1
:1011e00000000000feff370000a0fe00c462aa005d
:1011f000011980000108af001800370000e8af00b7
:1012000001003700240037003040800000a8af0004
:10121000090037002003e3001f0035000808e30041
:101220001d003c00104080002020880000e8a9003c
:101230000108a800090037002003e30016003c0065
:101240000808e300140035001040800020208800ca
:1012500000e8a9000108a800000037004209de00ec
:1012600060728000024878004c2eec004a2eec00a0
:10127000006420004a0ee30007003a00c03a200054
:10128000202088000128a8000108a9004a2eef00ac
:10129000a0802000607288004140880091c0a900b1
:1012a0000080fe00004006000000fa000008a800d0
:1012b0000028a9000048a9000080fa0000000600ec
:1012c0000000fa0097fe07000008a9000028a80007
:1012d0000048a9000080fa00000006000000fa00a3
:1012e0000140800000202000008060000000e0003d
:1012f00001003200b4fe07000080fa000000060082
:101300000000fa0098fe07000008a9000028a900c4
:101310000048a8000080fa00000006000000fa0063
:1013200000408000700060000000e000010032001a
:10133000ffff37000008a9000028a9000048a90005
:101340000080fa00000006000000fa000028ef000c
:101350000008a9000028a9000048a90000202000da
:101360003040880000a8a9000080fa0000000600b4
:101370000200fa00000f7800004080006800600062
:101380000000e00011003a00210880000000280061
:10139000008060000000e00006003a008460a900c0
:1013a0000021ef009e0078001108880005e1a800e8
:1013b0000600370020048000680060000000e000a4
:1013c000020032000068a80005e1a900004080008a
:1013d0004300de00614060000080fb000080fa00f6
:0413e0000000060003
:020000040000fa
:1013e4004e0e00003800000000000000000800005d
:0c13f4004e060000000000000000000099
:020000040000fa
:0200000401f009
:04000000ffff0000fe
:020000040000fa
:0200000401f009
:04000800ffff0000f6
:020000040000fa
:0200000401f009
:04000c0078ff000079
:020000040000fa
:0200000401f009
:040010005bff000092
:020000040000fa
:0200000401f009
:0400140079ff000070
:020000040000fa
:0200000401f009
:04001800fcff0000e9
:020000040000fa
:0200000401f009
:04001c00ddff000004
:00000001FF
